:020000040800F2
:1000000018190020CD010008E3090008DB090008E9
:10001000DF09000879060008F51C00080000000050
:100020000000000000000000000000004918000867
:1000300085080008000000004F020008351900087C
:10004000E7010008E7010008E7010008E7010008F0
:10005000E7010008E7010008E7010008E7010008E0
:10006000E7010008E7010008E7010008E7010008D0
:10007000E7010008E7010008E7010008E7010008C0
:10008000E7010008E7010008E7010008E7010008B0
:10009000E7010008E7010008E7010008E7010008A0
:1000A000E7010008E7010008E7010008E701000890
:1000B000E7010008E7010008E7010008E701000880
:1000C000E7010008E7010008E7010008E701000870
:1000D000E7010008E7010008E7010008E701000860
:1000E000E7010008E7010008E7010008E701000850
:1000F000E7010008E7010008E7010008E701000840
:10010000E7010008E7010008E7010008E70100082F
:10011000E7010008E7010008E7010008E70100081F
:10012000E7010008E7010008E7010008E70100080F
:1001300000F002F800F03AF80AA090E8000C8244BF
:100140008344AAF10107DA4501D100F02FF8AFF29C
:10015000090EBAE80F0013F0010F18BFFB1A43F0A5
:10016000010318471C1F00003C1F0000103A24BF69
:1001700078C878C1FAD8520724BF30C830C144BF0C
:1001800004680C607047000000230024002500264E
:10019000103A28BF78C1FBD8520728BF30C148BFEA
:1001A0000B6070471FB51FBD10B510BD00F083F880
:1001B0001146FFF7F7FF01F03FFE00F0A1F803B48E
:1001C000FFF7F2FF03BC00F0A5F8000009488047E4
:1001D00009480047FEE7FEE7FEE7FEE7FEE7FEE729
:1001E000FEE7FEE7FEE7FEE704480549054A064B41
:1001F00070470000A51900083101000818130020FD
:10020000181900201815002018150020EFF3108091
:1002100072B6704780F3108870471D484FF0FF0199
:100220000170002080F309881A48012101701A48E2
:100230004FF08051016062B6FEE717484FF08051E1
:100240000160704714484FF080510160704772B6EA
:10025000EFF3098028B1203880E8F00F0F490968D2
:10026000086000B50E4880475DF804EB0D480E4964
:100270000A78027009480D490A680260106890E81F
:10028000F00F203080F309884EF0040E62B67047FC
:1002900022ED00E03600002004ED00E03C000020EC
:1002A000111000082F000020300000204400002022
:1002B000704770477047754600F028F8AE46050055
:1002C0006946534620F00700854618B020B5FFF771
:1002D0008BFFBDE820404FF000064FF000074FF0C5
:1002E00000084FF0000B21F00701AC46ACE8C00954
:1002F000ACE8C009ACE8C009ACE8C0098D4670475D
:100300000446AFF300802046FFF759FF00487047CE
:10031000B812002001491820ABBEFEE726000200FB
:10032000704721B1826842F00102826003E0826876
:1003300022F001028260704700B587B0012140F2CF
:10034000112001F06BFA0C20ADF8180000208DF898
:100350001B0006A91E4800F096FA0020019001201B
:100360008DF808008DF809004FF4602003900020FC
:10037000049002208DF8140001A9164800F066F8D8
:10038000042301220C21134800F088F804230222E0
:100390000D21104800F082F801210E48FFF7C1FF3F
:1003A00001210C4800F018F80A4800F0D3F800BF0B
:1003B000084800F041F80028FAD1064800F0DAF8C1
:1003C00000BF044800F02EF80028FAD107B000BDA5
:1003D000001001400024014021B1826842F4807283
:1003E000826003E0826822F48072826070470000BD
:1003F00008B50121042001F011FA0320ADF8000036
:1004000018208DF8030003208DF802006946044887
:1004100000F039FA0121042001F000FA08BD0000C3
:1004200000080140014600208A6802F004020AB177
:10043000012000E000207047014600208A6802F099
:1004400008020AB1012000E00020704730B50246E2
:100450000020002350680F4C20400D790C6844EABE
:1004600005242043506090680B4C2040D1E9025491
:100470002C434D7944EA450420439060D06A20F42F
:1004800070000C7C641EE4B2234340EA0350D06247
:1004900030BD0000FFFEF0FFFDF7F1FFF0B50446B0
:1004A0000D4600200021092D11DDE068A5F10A06A6
:1004B00006EB4607072606FA07F18843A5F10A0668
:1004C00006EB460603FA06F10843E0600CE02069FB
:1004D00005EB4507072606FA07F1884305EB4506B5
:1004E00003FA06F108432061072A0FDA606B561EF3
:1004F00006EB86071F2606FA07F18843561E06EB11
:10050000860605FA06F10843606322E00D2A0FDA39
:10051000206BD61F06EB86071F2606FA07F18843D5
:10052000D61F06EB860605FA06F10843206310E0A5
:10053000E06AA2F10D0606EB86071F2606FA07F110
:100540008843A2F10D0606EB860605FA06F108437C
:10055000E062F0BD816841F008018160704721B11F
:10056000826842F4A002826003E0826822F4A00262
:1005700082607047816841F004018160704710B566
:10058000FFF736FF01F03EFAFFF7D6FE00F082F8E3
:1005900010BD10B501F006FA01F0D4F901F04EF9E2
:1005A00000F0FCF901F0B8F8FFF7E9FF00F002F8FD
:1005B00010BD000030B589B040F202640025012171
:1005C00040F6050001F02AF94FF48070ADF82000E4
:1005D00018208DF8230003208DF8220008A9224856
:1005E00000F051F9214800682149B0FBF1F0401EAC
:1005F00085B26000ADF81800ADF814500020ADF8D9
:100600001A00ADF816008DF81C0005A9194801F074
:100610001FFB6020ADF804000020ADF80C00ADF821
:100620000E000120ADF80600ADF808000002ADF89C
:1006300010000020ADF81200ADF80A4008210D4866
:1006400001F09CFA01A90B4801F04CFA012109487C
:1006500001F021FA0121074801F029FA002105489B
:1006600001F031FA09B030BD00080140000000205F
:1006700000127A00002C014000BFFEE721B10268A1
:1006800042F00102026004E002684FF6FE731A4075
:100690000260704700B58BB00121084601F09EF85A
:1006A000134800F02BF800200A9020200890000248
:1006B000099040110690800007908020059000204E
:1006C00004900290082003900A4800900A48019084
:1006D0006946074800F0B8F801210548FFF7CEFF4A
:1006E000012104484C38FFF73AFF0BB000BD000071
:1006F000080002404C240140D405002001684FF658
:10070000FE72114001600021016041608160C160A2
:100710004B49884208D14A490839496841F00F01DC
:10072000474A083A51608AE045491431884208D165
:1007300043490839496841F0F001414A083A51609B
:100740007DE03F492831884208D13D490839496850
:1007500041F470613A4A083A516070E038493C31DE
:10076000884208D136490839496841F47041344A11
:10077000083A516063E032495031884208D130492B
:100780000839496841F470212D4A083A516056E011
:100790002B496431884208D129490839496841F414
:1007A0007001274A083A516049E02549783188426A
:1007B00008D123490839496841F07061204A083A54
:1007C00051603CE01F49884206D1011F096841F091
:1007D0000F01021F116032E01A491431884208D11A
:1007E0001849091F096841F0F001164A121F1160EB
:1007F00025E014492831884208D11249091F0968A7
:1008000041F470610F4A121F116018E00D493C312C
:10081000884208D10B49091F096841F47041094A0F
:10082000121F11600BE007495031884207D105497A
:10083000091F096841F47021024A121F11607047B4
:10084000080002400804024010B50022026847F682
:10085000F0739A430C6A8B6823430C6923434C69F9
:1008600023438C692343CC6923434C6A23438C6A1A
:1008700023431A430260CB6843600B6883604B6874
:10088000C36010BD70472DE9F041024600250026E7
:10089000002000230024002791F803C00CF00F056E
:1008A00091F803C00CF0100CBCF1000F03D091F8CC
:1008B00002C04CEA050591F800C0BCF1000F31D030
:1008C000146800202BE04FF0010C0CFA00F3B1F893
:1008D00000C00CEA03069E4220D183004FF00F0CAB
:1008E0000CFA03F7BC4305FA03FC4CEA040491F844
:1008F00003C0BCF1280F06D14FF0010C0CFA00FC2C
:10090000C2F814C00AE091F803C0BCF1480F05D149
:100910004FF0010C0CFA00FCC2F810C0401C082873
:10092000D1D31460B1F800C0BCF1FF0F34DD5468BE
:1009300000202EE000F1080C4FF0010808FA0CF33B
:10094000B1F800C00CEA03069E4221D183004FF0AB
:100950000F0C0CFA03F7BC4305FA03FC4CEA040441
:1009600091F803C0BCF1280F05D100F1080C08FA7A
:100970000CF8C2F8148091F803C0BCF1480F07D1FD
:1009800000F1080C4FF0010808FA0CF8C2F81080CA
:10099000401C0828CED35460BDE8F08108B5012181
:1009A000042000F03BFF0420ADF8000010208DF87B
:1009B000030001208DF8020069460448FFF763FF39
:1009C0000121042000F02AFF08BD000000080140BA
:1009D0000AB1016100E04161704700BFFEE700BF5E
:1009E000FEE77047174818481848194819481A4828
:1009F0001A481B481B481C481C481D481D481E48D7
:100A00001E481F481F4820482048214821482248A6
:100A10002248234823482448244825482548264876
:100A200026482748274828482848294829482A4846
:100A30002A482B482B482C482C482D482D4800BFCD
:100A400070470000201F0008241F0008281F00080E
:100A50002A1F00082C1F00082E1F0008301F000846
:100A6000321F0008341F0008361F0008381F000816
:100A70003A1F00083C1F00083E1F0008401F0008E6
:100A8000421F0008441F0008461F0008481F0008B6
:100A90004A1F00084C1F00084E1F0008501F000886
:100AA000521F0008541F0008561F0008581F000856
:100AB0005A1F00085C1F00085E1F0008601F000826
:100AC000621F0008641F0008661F0008681F0008F6
:100AD0006A1F00086C1F00086E1F0008701F0008C6
:100AE000721F0008741F0008761F0008781F000896
:100AF0007A1F00087C1F000810B500F013F800F002
:100B000003FC00F02BFC00F04DFC00F0D5FB00F0E6
:100B10009BFB00F07BFC00F093FC00F004F8FFF777
:100B200061FF10BD7047704706480078012808D162
:100B300005480078FF2804D203480078401C024989
:100B400008707047360000202D00002010B50024EA
:100B50001A480078012830D1FFF758FB044618489E
:100B60000078002804DD16480078401E14490870FB
:100B700013480078F0B913480078D8B900F0BEFCEB
:100B80001148007811490978884213D010480E495D
:100B9000097850F821000F49086008460068806A0B
:100BA000401C096888620C480068401C0A490860BB
:100BB000FFF748FB2046FFF72DFB10BD3600002055
:100BC0002D0000202E000020300000202F000020EB
:100BD000B00B0020440000201400002010B50B488A
:100BE000007890B900F08AFC09480078094908703B
:100BF00009480749097850F8210008490860084663
:100C0000006807490860FFF708FB10BD36000020A8
:100C1000300000202F000020B00B002044000020F6
:100C20003C000020704700002DE9FE4F06460F46AD
:100C300090461C464FF00009FFF7E8FA814620482D
:100C40000078002805DD4846FFF7E4FA3C20BDE8BF
:100C5000FE8F1C4850F8240060BB0120194941F860
:100C600024004846FFF7D6FA00234246394630466C
:100C700000F02DF9824600200090019003460246C4
:100C800051460290204600F067FC054635B90E48F3
:100C9000007801280CD100F0F7FB09E0FFF7B6FA65
:100CA00081460020074941F824004846FFF7B2FA80
:100CB0002846CCE74846FFF7ADFA2820C7E70000F2
:100CC0002D000020B00B00203600002070470000EF
:100CD0002DE9F041054600274D480078002802DD47
:100CE0004020BDE8F0811F2D01D13E20F9E7FFF73C
:100CF0008DFA0746FF2D03D14648006890F8225030
:100D0000454850F8254024B93846FFF783FA432078
:100D1000E7E7012C04D13846FFF77CFA3D20E0E7F5
:100D200014F8240F3D49085C6178884321783B4AD8
:100D3000505414F824091146085C30B994F8261070
:100D400037480078884336490870E06818B1204673
:100D5000E16800F047FA206918B12046216900F0E7
:100D600056FAA66916B1304600F094FA0020E083E6
:100D700084F8200084F821002A480078FF2804D253
:100D800028480078401C274908703846FFF742FA87
:100D900000F027FAFFF73AFA0746224800780028C1
:100DA00004DD20480078401E1E490870204600F0EF
:100DB00043F81D480078401E1B4908700020164962
:100DC00041F82500A06830B90020616888601749A3
:100DD0006068086005E0D4E901014860D4E90110C9
:100DE0008860134800686060114804603F2084F800
:100DF0003C0000213D2001553846FFF70BFA0D4815
:100E00000078012801D100F03FFB002069E70000D5
:100E10002D0000203C000020B00B002032000020FC
:100E2000310000202E000020370000204800002064
:100E30004000002036000020704770472DE9F04741
:100E40000646884614464FF000091D4800780028E1
:100E500003DD12202070BDE8F087FFF7D7F9814647
:100E6000FF2E03D11748006890F82260164850F80A
:100E700026502DB94846FFF7CDF943202070EAE708
:100E8000012D05D14846FFF7C5F943202070E2E760
:100E9000404600F057FB07460F2F05DD4846FFF799
:100EA000B9F941202070D6E7414605F13C0000F039
:100EB0003BFB4846FFF7AEF90020207000BFCAE7B1
:100EC0002D0000203C000020B00B0020704770B5C2
:100ED000044610464FF080750560051F28462C60BB
:100EE0006FF00106051F28462E604FF01236051FD1
:100EF00028462E604FF00336051F28462E604FF01F
:100F00000236051F28462E607610051F28462E60E3
:100F1000051F284629604FF01136051F28462E6010
:100F20004FF01036051F28462E604FF00936051F7A
:100F300028462E604FF00836051F28462E604FF0D9
:100F40000736051F28462E604FF00636051F284637
:100F50002E604FF00536051F28462E604FF00436F0
:100F6000051F28462E6070BD2DE9F04105464FF063
:100F70000008FFF74BF98046FF2D05D12048006897
:100F800090F82250012608E01D48006890F82200E1
:100F9000A84201D1012600E000261A4850F8254059
:100FA0002CB94046FFF736F94820BDE8F081012C06
:100FB00004D14046FFF72EF94320F6E794F8247059
:100FC0001148C05D94F8251088430F49C85508465C
:100FD000C05D30B994F826100C48007888430B495E
:100FE000087094F8200040F0080084F82000404683
:100FF000FFF710F9012E01D100F046FA0020D4E7E6
:101000003C000020B00B0020320000203100002006
:101010007047000070B50546002616480078002885
:1010200000DD70BD002D23DDFFF7F0F80646124805
:10103000006890F824401148005D0F49096891F854
:10104000251088430D4908550846005D40B90A48F7
:10105000006890F826100A4800788843084908700C
:1010600005480068C5833046FFF7D4F800F00CFA55
:1010700000BFD6E72D0000203C00002032000020F9
:10108000310000202DE9F0470746884691461D466D
:1010900017480078002802DD5520BDE8F0874FF49E
:1010A0007A7068434FF47A71B0FBF1F14FF46160EC
:1010B0007843C8EB081200EB8200484400EB400282
:1010C000C2EBC01001EBC004260CA4B22046FFF70F
:1010D000A1FF09E04FF40040FFF79CFF4FF40040F0
:1010E000FFF798FF701E86B2002EF3DC0020D4E7D5
:1010F0002D00002070B5002600F072F8FFF786F88A
:10110000064631480068401C2F4908603046FFF70A
:1011100081F82E480078012853D12D48007820B15D
:10112000012804D0022809D103E001250BE00025A5
:1011300009E0012501202649087004E0012500206E
:101140002349087000BF00BF05B970BD214804687D
:1011500033E0FFF75BF80646E08B50B3E08B401EB0
:1011600080B2E08328BB94F8200000F0370040B143
:1011700014F8200F20F03700207001206070203C10
:1011800002E0002084F8210094F8200000F008001C
:1011900078B92434A0781049097808430E490870BA
:1011A00020780E49085C6178084314F824190B4A2A
:1011B000505464683046FFF72DF894F822001F2839
:1011C000C7D100BFC1E7000050000020360000205A
:1011D0004C00002048000020310000203200002098
:1011E0007047704710B590F8242001F10B039B5C09
:1011F00090F82540A34301F10B04A35423469B5CC4
:1012000023B98B7A90F82640A3438B7210BDF0B5BA
:10121000024612F8244F95785678243A0B461868FF
:101220000FE000F10B073F5DB74300F10B0C0CF82A
:10123000047067463F5D17B9877AAF4387721B1DFD
:1012400018680028EDD1F0BD70B58C210F4800F072
:1012500011F90E4C04F11C0600250AE00020207054
:1012600066603F20A0720021E1721C341C36681CAD
:1012700085B2042DF2DB0020207060603F20A07258
:101280000021E17201480249086070BD2407002076
:101290001C00002030B501464A6808682AB9CC68AD
:1012A000606028B10025456002E0106000B1426036
:1012B0008B6800259D6130BD30B54FF4A07110489A
:1012C00000F0D8F80E4B03F1200500240AE00020BE
:1012D00018705D603F20D8730021197420332035C9
:1012E000601C84B2092CF2DB0020187058603F208B
:1012F000D8730021197402480249086030BD00000B
:10130000E40500201800002000200A4908600A496E
:1013100008700A4908700A4908700A4908700A49A1
:1013200008600A4908600A4908600A4908600A49D1
:1013300008707047500000202D0000202E00002073
:101340003700002036000020140000203800002064
:1013500028000020240000202C00002000220B4B3D
:101360001A700B49002004E0002201F8012B421CF6
:10137000D0B20428F8DB0022064B1A70064B1A7014
:10138000064B1A60064B1A607047000031000020BF
:10139000320000202F0000203000002044000020F8
:1013A0003C00002030B54FF4D161144800F062F8E1
:1013B0008021134800F05EF8104B03F14C05002427
:1013C0000AE05D603F2083F83C0000213D20C154CD
:1013D0004C334C35601CC4B2152CF2D3002058603D
:1013E0003F2083F83C0000213D20C15400200549E6
:1013F000086002480449086030BD0000300C00203D
:10140000B00B0020480000204000002008B51F233A
:10141000054A00210548FFF707FC6A4604A11F2082
:10142000FFF70CFD08BD0000AC0B00207116000892
:1014300075432F4F532D49492049646C65000000C6
:1014400008B51E23054A00210548FFF7EDFB6A4653
:1014500004A11E20FFF7F2FC08BD0000AC0900202B
:101460009516000875432F4F532D49492053746139
:101470007400000004E0002200F8012B4A1E91B223
:101480000029F8DC7047000010B50024FEF7BEFE0E
:10149000044613480078F0B912480078D8B900F033
:1014A0002DF81148007811490978884213D0104866
:1014B0000D49097850F821000E4908600846006877
:1014C000806A401C096888620B480068401C0A4911
:1014D0000860FEF7B2FE2046FEF79CFE10BD00003D
:1014E0002D0000202E000020300000202F000020C2
:1014F000B00B002044000020140000200649074AD9
:101500001278885C0649095C034A515C01EBC00112
:10151000044A1170704700007E1F0008310000204F
:1015200032000020300000200246002005E011F8C3
:10153000013B02F8013B431CD8B20B78002BF6D1DB
:10154000137070470146002002E0491C421CD0B2D3
:101550000A78002AF9D170472DE9F84F05460E4662
:1015600017469846DDE90BABDDF828900020009087
:10157000FEF74CFE009038480468002C66D0083412
:1015800054F8040C344908600098FEF743FE44F810
:10159000086CA576002020766076E08200BF00BF50
:1015A00000BF00BF00BFE077E810207705F007001C
:1015B000E076217F01208840A077E17E01208840ED
:1015C000607700206060A0602061E0602062A0621F
:1015D0006062E06220633F2084F83400083C002110
:1015E0003D2001552046FFF71DFB2046FFF76EFB0F
:1015F000FEF70CFE0090194840F825401848006896
:1016000060600020A0601648006810B114480068AF
:101610008460134804602434A07812490978084390
:101620001049087020781049085C6178084314F864
:1016300024190D4A50540D480078401C0B4908707D
:101640000098FEF7E7FD0020BDE8F88F0098FEF750
:10165000E1FD4220F8E7000040000020B00B002030
:101660004800002031000020320000203700002018
:10167000002400BFFEF7CAFD044605480068401C70
:10168000034908602046FEF7C5FDFFF7D6FBF1E7EA
:1016900038000020002402E0C820FFF7BBFC1948F6
:1016A00000780028F8D0184800686421B0FBF1F0F9
:1016B000154908600846006828B9002013490870D9
:1016C000FF20FFF751FC00BFFEF7A0FD04461048C5
:1016D00000681049086000200D4908602046FEF7A8
:1016E00099FD0C48006808490968B0FBF1F0C0F1A9
:1016F000640006490870FFF7E9FB6420FFF78AFCE5
:10170000E2E700002C000020240000202000002040
:10171000380000202800002030B589B040F2026473
:10172000002501210D2000F079F84FF44070ADF84C
:10173000200018208DF8230003208DF8220008A92E
:101740002248FFF7A0F8224800682249B0FBF1F0D8
:10175000401E85B26000ADF81800ADF814500020AE
:10176000ADF81A00ADF816008DF81C0005A91A484E
:1017700000F06EFA6020ADF804000020ADF80C0017
:10178000ADF80E000120ADF80600ADF8080000022B
:10179000ADF810000020ADF81200ADF80A400821A5
:1017A0000D4800F0EBF901A90B4800F09BF901216D
:1017B000094800F070F90121074800F078F900218C
:1017C000054800F080F909B030BD0000000C014070
:1017D0000000002000127A000008004029B1064AEB
:1017E00052690243044B5A6104E0034A526982433E
:1017F000014B5A61704700000010024029B1064AAF
:10180000D2690243044BDA6104E0034AD26982439D
:10181000014BDA61704700000010024029B1064A0E
:1018200092690243044B9A6104E0034A926982433D
:10183000014B9A61704700000010024010B5012171
:101840000420FFF7EBFF10BD704710B500F002F861
:1018500010BD00000CB500200190009033480068D6
:1018600040F480303149086000BF3048006800F41F
:10187000003000900198401C0190009818B9019820
:10188000B0F5A06FF1D12948006800F4003010B124
:101890000120009001E0002000900098012843D131
:1018A0002348006840F0100021490860084600689D
:1018B00020F0030008600846006840F0020008605D
:1018C0001A48406819494860084640684860084618
:1018D000406840F4806048600846406820F47C100E
:1018E00048600846406840F4E810486008460068D0
:1018F00040F08070086000BF0C48006800F0007085
:101900000028F9D00948406820F0030007494860E2
:101910000846406840F00200486000BF0348406845
:1019200000F00C000828F9D10CBD000000100240A6
:101930000020024010B5FFF7F7F8FFF7DBFBFFF7D9
:1019400005F910BD30B5144800684FF47A72B0FB49
:10195000F2F1B1F1807F00D31DE021F07F40401E05
:101960004FF0E022506150170F22002807DA1307CA
:101970001D0E0A4B00F00F04241F1D5503E0130732
:101980001C0E074B1C5400BF00204FF0E02290615A
:101990000720106100BF30BD0000002018ED00E0FE
:1019A00000E400E010B51348006840F00100114960
:1019B000086008464068104908400E4948600846DB
:1019C00000680E4908400B4908600846006820F48A
:1019D000802008600846406820F4FE0048604FF40C
:1019E0001F008860FFF731FF4FF000600449086076
:1019F00010BD0000001002400000FFF8FFFFF6FEDF
:101A000008ED00E000B587B001210846FFF7F6FEBB
:101A1000FF20ADF804004FF47A70ADF8000000200C
:101A2000ADF80600ADF8020069464FF0804000F0C6
:101A30000FF96020ADF80C000120ADF80E00002079
:101A4000ADF812000220ADF8140003A9400700F021
:101A500049F80821C80600F091F86020ADF80C00A4
:101A60000120ADF80E000020ADF812000220ADF804
:101A7000140003A9400700F08BF80821C80600F005
:101A8000D9F80121880700F006F80121880700F045
:101A90000EF807B000BD21B1028842F0800202803A
:101AA00004E002884FF67F731A400280704721B12C
:101AB000028842F00102028004E002884FF6FE73C1
:101AC0001A400280704731B1B0F8442042F400421D
:101AD000A0F8442005E0B0F84420C2F30E02A0F8BC
:101AE0004420704770B5002400220023058C4FF677
:101AF000FE7635400584028C8388048B4FF68F7503
:101B00002C40B51E2C400D882C43751E2A400D8993
:101B10002A434D882A43144DA8420BD0134DA842A6
:101B200008D0134DA84205D0124DA84202D0124D44
:101B3000A84213D14FF6F7752A404D892A434FF634
:101B4000FB752A408D882A434FF6FF652B404FF6E0
:101B5000FF552B408D892B43CD892B4383800483F4
:101B6000CD888586028470BD002C01400034014080
:101B70000040014000440140004801400A46002165
:101B8000018B4FF6F7731940114301837047000032
:101B900070B5002400220023058C4FF6EF76354007
:101BA0000584028C8388048B48F6FF752C404FF621
:101BB000FF452C400D884FF6FF7606EA05252C439D
:101BC0004FF6DF752A400D8906EA05152A434D8830
:101BD00006EA05152A43154DA84202D0144DA84225
:101BE0001DD14FF67F752A404D894FF6FF7606EAE4
:101BF00005152A434FF6BF752A408D8806EA05155C
:101C00002A434FF6FF352B404FF2FF752B408D894D
:101C100006EA85052B43CD8906EA85052B4383809B
:101C20000483CD880587028470BD0000002C01402C
:101C3000003401400A460021018B4FF2FF73194026
:101C40004FF6FF7303EA0223194301837047000034
:101C5000002202881D4B98420ED01D4B98420BD09B
:101C6000B0F1804F08D01B4B984205D01A4B9842D8
:101C700002D01A4B984204D14FF68F731A404B880A
:101C80001A43174B984207D0164B984204D04FF690
:101C9000FF431A40CB881A4302808B8883850B88C8
:101CA00003850A4B98420BD0094B984208D00E4B43
:101CB000984205D00D4B984202D00D4B984201D16D
:101CC0000B7A03860123838270470000002C0140B9
:101CD000003401400004004000080040000C0040B7
:101CE000001000400014004000400140004401404A
:101CF0000048014000BFFEE708B52DE000250024A4
:101D000018E0164931F814200B46A11C33F81110C5
:101D10000A44211D33F811100A44A11D33F8111093
:101D20005018C11700EB9171C1F38F012DF81410F9
:101D3000601CC4B2022CE4DBBDF8000005124FF0B9
:101D400080408586BDF8020005124FF0804005876F
:101D50000A20FFF75FF900BFD0E70000D40500209C
:101D6000002413E004F0010020B901210848FFF726
:101D7000AAFE03E000210648FFF7A5FE641C4FF40D
:101D80004873002211461046FFF77CF9EAE700008D
:101D9000002C0140002414E004F0010028B90122C5
:101DA00011460848FEF714FE04E000220121054810
:101DB000FEF70EFE641CC823002211461046FFF7F2
:101DC00061F9E9E700080140002415E004F0010092
:101DD00028B9012202210948FEF7FAFD04E0002299
:101DE00002210648FEF7F4FD641C4FF4C87300227C
:101DF00011461046FFF746F9E8E7000000080140E9
:101E0000002415E004F0010028B90122042109484A
:101E1000FEF7DEFD04E0002204210648FEF7D8FDAF
:101E2000641C4FF41673002211461046FFF72AF97E
:101E3000E8E700000008014010B5FEF7AAFBFEF736
:101E40005BFE0423044A00210448FEF7EDFEFEF782
:101E5000C5FE002010BD000050020020951E0008A5
:101E6000002413E004F0010020B900210848FFF726
:101E70002AFE03E001210648FFF725FE641C4FF40B
:101E80004873002211461046FFF7FCF8EAE700000D
:101E90000008004010B504460523154A00211548E6
:101EA000FEF7C2FE0623144A00211448FEF7BCFECA
:101EB0000723134A00211348FEF7B6FE0823124AEF
:101EC00000211248FEF7B0FE0923114A00211148F3
:101ED000FEF7AAFE0A23104A00211048FEF7A4FECE
:101EE0000420FFF741F8FF20FEF7F2FE10BD0000CE
:101EF000D0020020951D000850030020C91D0008D5
:101F0000D0030020011E000850040020611D0008BD
:101F1000D0040020611E0008D0050020F91C000834
:101F200001000000785634120A0010000100200061
:101F3000400101001C0014000200050010001F00F9
:101F40000100000005001000000000000000040077
:101F50000000040000000400010004000100000073
:101F60000100800001001600100001008000010047
:101F7000010020004C00E80301001E010E0D0000CE
:101F80000100020001000300010002000100040042
:101F90000100020001000300010002000100050031
:101FA0000100020001000300010002000100040022
:101FB0000100020001000300010002000100060010
:101FC0000100020001000300010002000100040002
:101FD00001000200010003000100020001000500F1
:101FE00001000200010003000100020001000400E2
:101FF00001000200010003000100020001000700CF
:1020000001000200010003000100020001000400C1
:1020100001000200010003000100020001000500B0
:1020200001000200010003000100020001000400A1
:10203000010002000100030001000200010006008F
:102040000100020001000300010002000100040081
:102050000100020001000300010002000100050070
:102060000100020001000300010002000100040061
:102070000100020001000300010002000100000055
:10208000A020000800000020540000006C0100089F
:10209000F420000854000020C41800008801000843
:1020A00000A24A0400000000000000000102030436
:1020B0000607080900000000000000000000000002
:1020C0000000000000000000000000000000000010
:1020D0000000000000000000000000000000000000
:1020E00000000000000000000000000000000000F0
:0420F00000000000EC
:0400000508000131BD
:00000001FF
